:100000000C942A000C9447000C9447000C94470071
:100010000C9447000C9447000C9447000C94470044
:100020000C9447000C9447000C9447000C94470034
:100030000C9447000C9447000C9447000C94470024
:100040000C9447000C9447000C9447000C94470014
:100050000C94470011241FBECFE5D8E0DEBFCDBF12
:1000600010E0A0E6B0E0E8E9F1E002C005900D92F2
:10007000A237B107D9F720E0A2E7B0E001C01D9296
:10008000A337B207E1F70E947E000C94CA000C94DB
:1000900000009A01AB0160E472E48FE090E00E94FE
:1000A000A800BB27A52F942F832F80BD29B9539A71
:1000B00086E880BD08955D9BFECF6CB908950F93CF
:1000C0001F93CF93DF93D82FC92F8B01F801619134
:1000D0008F0161110EC06DE08D2F9C2F0E945B007F
:1000E0006AE08D2F9C2FDF91CF911F910F910C947F
:1000F0005B008D2F9C2F0E945B00E8CFCDB7DEB751
:1001000061970FB6F894DEBF0FBECDBF40E052EC52
:1001100061E070E082E790E00E94490021E1E0E6C2
:10012000F0E0CE010196DC0101900D922A95E1F7F5
:100130008C01B80182E790E00E945F002FEF83ED11
:1001400090E3215080409040E1F700C00000F1CFE3
:10015000A1E21A2EAA1BBB1BFD010DC0AA1FBB1FCB
:10016000EE1FFF1FA217B307E407F50720F0A21B3D
:10017000B30BE40BF50B661F771F881F991F1A94AA
:1001800069F760957095809590959B01AC01BD01D4
:08019000CF010895F894FFCFA0
:100198004675636B20596F752041746D65676121E1
:0201A800000055
:00000001FF
